{
  "contractName": "Prison",
  "abi": [
    {
      "constant": true,
      "inputs": [
        {
          "name": "",
          "type": "uint256"
        }
      ],
      "name": "prisonners",
      "outputs": [
        {
          "name": "name",
          "type": "string"
        },
        {
          "name": "charge",
          "type": "string"
        },
        {
          "name": "imprisonment_date",
          "type": "uint256"
        },
        {
          "name": "date_release",
          "type": "uint256"
        },
        {
          "name": "prison_adr",
          "type": "address"
        },
        {
          "name": "pris_ID",
          "type": "uint256"
        },
        {
          "name": "sentence_years",
          "type": "uint256"
        },
        {
          "name": "state",
          "type": "bool"
        },
        {
          "name": "toTransf",
          "type": "bool"
        }
      ],
      "payable": false,
      "stateMutability": "view",
      "type": "function"
    },
    {
      "constant": false,
      "inputs": [],
      "name": "renounceOwnership",
      "outputs": [],
      "payable": false,
      "stateMutability": "nonpayable",
      "type": "function"
    },
    {
      "constant": false,
      "inputs": [],
      "name": "destroy",
      "outputs": [],
      "payable": false,
      "stateMutability": "nonpayable",
      "type": "function"
    },
    {
      "constant": true,
      "inputs": [],
      "name": "owner",
      "outputs": [
        {
          "name": "",
          "type": "address"
        }
      ],
      "payable": false,
      "stateMutability": "view",
      "type": "function"
    },
    {
      "constant": false,
      "inputs": [
        {
          "name": "_newOwner",
          "type": "address"
        }
      ],
      "name": "transferOwnership",
      "outputs": [],
      "payable": false,
      "stateMutability": "nonpayable",
      "type": "function"
    },
    {
      "constant": false,
      "inputs": [
        {
          "name": "_recipient",
          "type": "address"
        }
      ],
      "name": "destroyAndSend",
      "outputs": [],
      "payable": false,
      "stateMutability": "nonpayable",
      "type": "function"
    },
    {
      "inputs": [],
      "payable": false,
      "stateMutability": "nonpayable",
      "type": "constructor"
    },
    {
      "anonymous": false,
      "inputs": [
        {
          "indexed": false,
          "name": "Prisonner_Counter",
          "type": "uint256"
        }
      ],
      "name": "Imprisoned",
      "type": "event"
    },
    {
      "anonymous": false,
      "inputs": [
        {
          "indexed": false,
          "name": "Prisonner_Counter",
          "type": "uint256"
        }
      ],
      "name": "Free",
      "type": "event"
    },
    {
      "anonymous": false,
      "inputs": [
        {
          "indexed": false,
          "name": "Prisonner_Counter",
          "type": "uint256"
        }
      ],
      "name": "TransferredIn",
      "type": "event"
    },
    {
      "anonymous": false,
      "inputs": [
        {
          "indexed": true,
          "name": "previousOwner",
          "type": "address"
        }
      ],
      "name": "OwnershipRenounced",
      "type": "event"
    },
    {
      "anonymous": false,
      "inputs": [
        {
          "indexed": true,
          "name": "previousOwner",
          "type": "address"
        },
        {
          "indexed": true,
          "name": "newOwner",
          "type": "address"
        }
      ],
      "name": "OwnershipTransferred",
      "type": "event"
    },
    {
      "constant": false,
      "inputs": [
        {
          "name": "_name",
          "type": "string"
        },
        {
          "name": "_charge",
          "type": "string"
        },
        {
          "name": "_sentence_years",
          "type": "uint256"
        }
      ],
      "name": "Book",
      "outputs": [],
      "payable": false,
      "stateMutability": "nonpayable",
      "type": "function"
    },
    {
      "constant": false,
      "inputs": [
        {
          "name": "pris_ID",
          "type": "uint256"
        }
      ],
      "name": "Release",
      "outputs": [],
      "payable": false,
      "stateMutability": "nonpayable",
      "type": "function"
    },
    {
      "constant": false,
      "inputs": [
        {
          "name": "pris_ID",
          "type": "uint256"
        }
      ],
      "name": "CanTransfer",
      "outputs": [],
      "payable": false,
      "stateMutability": "nonpayable",
      "type": "function"
    },
    {
      "constant": false,
      "inputs": [
        {
          "name": "pris_ID",
          "type": "uint256"
        }
      ],
      "name": "transfer_in",
      "outputs": [],
      "payable": false,
      "stateMutability": "nonpayable",
      "type": "function"
    },
    {
      "constant": true,
      "inputs": [
        {
          "name": "pris_ID",
          "type": "uint256"
        }
      ],
      "name": "getPrisonner",
      "outputs": [
        {
          "name": "name",
          "type": "string"
        },
        {
          "name": "in_prison",
          "type": "bool"
        },
        {
          "name": "charge",
          "type": "string"
        },
        {
          "name": "imprisonment_date",
          "type": "uint256"
        },
        {
          "name": "releaseD",
          "type": "uint256"
        },
        {
          "name": "_pris_adr",
          "type": "address"
        },
        {
          "name": "transf",
          "type": "bool"
        }
      ],
      "payable": false,
      "stateMutability": "view",
      "type": "function"
    },
    {
      "constant": true,
      "inputs": [
        {
          "name": "whatadr",
          "type": "address"
        }
      ],
      "name": "getPrisonList",
      "outputs": [
        {
          "name": "ID_List",
          "type": "uint256[]"
        }
      ],
      "payable": false,
      "stateMutability": "view",
      "type": "function"
    }
  ],
  "bytecode": "0x608060405234801561001057600080fd5b50336000806101000a81548173ffffffffffffffffffffffffffffffffffffffff021916908373ffffffffffffffffffffffffffffffffffffffff16021790555033600160006101000a81548173ffffffffffffffffffffffffffffffffffffffff021916908373ffffffffffffffffffffffffffffffffffffffff1602179055506000600281905550611586806100a96000396000f3006080604052600436106100ba576000357c0100000000000000000000000000000000000000000000000000000000900463ffffffff1680633a756ac9146100bf5780634893862d146100ec5780634f4dbd851461018457806370f3149c146102ed578063715018a61461046457806381fffbf01461047b57806383197ef0146105345780638da5cb5b1461054b578063b4c612dd146105a2578063cf95d1fe146105cf578063f2fde38b146105fc578063f5074f411461063f575b600080fd5b3480156100cb57600080fd5b506100ea60048036038101908080359060200190929190505050610682565b005b3480156100f857600080fd5b5061012d600480360381019080803573ffffffffffffffffffffffffffffffffffffffff1690602001909291905050506107e7565b6040518080602001828103825283818151815260200191508051906020019060200280838360005b83811015610170578082015181840152602081019050610155565b505050509050019250505060405180910390f35b34801561019057600080fd5b506101af60048036038101908080359060200190929190505050610976565b604051808060200188151515158152602001806020018781526020018681526020018573ffffffffffffffffffffffffffffffffffffffff1673ffffffffffffffffffffffffffffffffffffffff1681526020018415151515815260200183810383528a818151815260200191508051906020019080838360005b8381101561024557808201518184015260208101905061022a565b50505050905090810190601f1680156102725780820380516001836020036101000a031916815260200191505b50838103825288818151815260200191508051906020019080838360005b838110156102ab578082015181840152602081019050610290565b50505050905090810190601f1680156102d85780820380516001836020036101000a031916815260200191505b50995050505050505050505060405180910390f35b3480156102f957600080fd5b5061031860048036038101908080359060200190929190505050610bac565b6040518080602001806020018a81526020018981526020018873ffffffffffffffffffffffffffffffffffffffff1673ffffffffffffffffffffffffffffffffffffffff168152602001878152602001868152602001851515151581526020018415151515815260200183810383528c818151815260200191508051906020019080838360005b838110156103ba57808201518184015260208101905061039f565b50505050905090810190601f1680156103e75780820380516001836020036101000a031916815260200191505b5083810382528b818151815260200191508051906020019080838360005b83811015610420578082015181840152602081019050610405565b50505050905090810190601f16801561044d5780820380516001836020036101000a031916815260200191505b509b50505050505050505050505060405180910390f35b34801561047057600080fd5b50610479610d64565b005b34801561048757600080fd5b50610532600480360381019080803590602001908201803590602001908080601f0160208091040260200160405190810160405280939291908181526020018383808284378201915050505050509192919290803590602001908201803590602001908080601f016020809104026020016040519081016040528093929190818152602001838380828437820191505050505050919291929080359060200190929190505050610e66565b005b34801561054057600080fd5b50610549611052565b005b34801561055757600080fd5b506105606110e7565b604051808273ffffffffffffffffffffffffffffffffffffffff1673ffffffffffffffffffffffffffffffffffffffff16815260200191505060405180910390f35b3480156105ae57600080fd5b506105cd6004803603810190808035906020019092919050505061110c565b005b3480156105db57600080fd5b506105fa600480360381019080803590602001909291905050506111b0565b005b34801561060857600080fd5b5061063d600480360381019080803573ffffffffffffffffffffffffffffffffffffffff1690602001909291905050506112e0565b005b34801561064b57600080fd5b50610680600480360381019080803573ffffffffffffffffffffffffffffffffffffffff169060200190929190505050611347565b005b600115156003600083815260200190815260200160002060070160019054906101000a900460ff1615151415156106b857600080fd5b3373ffffffffffffffffffffffffffffffffffffffff166003600083815260200190815260200160002060040160009054906101000a900473ffffffffffffffffffffffffffffffffffffffff1673ffffffffffffffffffffffffffffffffffffffff161415151561072957600080fd5b7f0d1e2c29c111898a925a419aa43b67dd2b3760deeeac4ceba9418505580a5739816040518082815260200191505060405180910390a1336003600083815260200190815260200160002060040160006101000a81548173ffffffffffffffffffffffffffffffffffffffff021916908373ffffffffffffffffffffffffffffffffffffffff16021790555060006003600083815260200190815260200160002060070160016101000a81548160ff02191690831515021790555050565b6060600080600060606000925060009150600093505b60025484111515610888578573ffffffffffffffffffffffffffffffffffffffff166003600086815260200190815260200160002060040160009054906101000a900473ffffffffffffffffffffffffffffffffffffffff1673ffffffffffffffffffffffffffffffffffffffff16141561087b5782806001019350505b83806001019450506107fd565b826040519080825280602002602001820160405280156108b75781602001602082028038833980820191505090505b509050600093505b6002548411151561096a578573ffffffffffffffffffffffffffffffffffffffff166003600086815260200190815260200160002060040160009054906101000a900473ffffffffffffffffffffffffffffffffffffffff1673ffffffffffffffffffffffffffffffffffffffff16141561095d57818060010192505083816001840381518110151561094e57fe5b90602001906020020181815250505b83806001019450506108bf565b80945050505050919050565b60606000606060008060008060036000898152602001908152602001600020600001600360008a815260200190815260200160002060070160009054906101000a900460ff16600360008b8152602001908152602001600020600101600360008c815260200190815260200160002060020154600360008d815260200190815260200160002060030154600360008e815260200190815260200160002060040160009054906101000a900473ffffffffffffffffffffffffffffffffffffffff16600360008f815260200190815260200160002060070160019054906101000a900460ff16868054600181600116156101000203166002900480601f016020809104026020016040519081016040528092919081815260200182805460018160011615610100020316600290048015610af05780601f10610ac557610100808354040283529160200191610af0565b820191906000526020600020905b815481529060010190602001808311610ad357829003601f168201915b50505050509650848054600181600116156101000203166002900480601f016020809104026020016040519081016040528092919081815260200182805460018160011615610100020316600290048015610b8c5780601f10610b6157610100808354040283529160200191610b8c565b820191906000526020600020905b815481529060010190602001808311610b6f57829003601f168201915b505050505094509650965096509650965096509650919395979092949650565b6003602052806000526040600020600091509050806000018054600181600116156101000203166002900480601f016020809104026020016040519081016040528092919081815260200182805460018160011615610100020316600290048015610c585780601f10610c2d57610100808354040283529160200191610c58565b820191906000526020600020905b815481529060010190602001808311610c3b57829003601f168201915b505050505090806001018054600181600116156101000203166002900480601f016020809104026020016040519081016040528092919081815260200182805460018160011615610100020316600290048015610cf65780601f10610ccb57610100808354040283529160200191610cf6565b820191906000526020600020905b815481529060010190602001808311610cd957829003601f168201915b5050505050908060020154908060030154908060040160009054906101000a900473ffffffffffffffffffffffffffffffffffffffff16908060050154908060060154908060070160009054906101000a900460ff16908060070160019054906101000a900460ff16905089565b6000809054906101000a900473ffffffffffffffffffffffffffffffffffffffff1673ffffffffffffffffffffffffffffffffffffffff163373ffffffffffffffffffffffffffffffffffffffff16141515610dbf57600080fd5b6000809054906101000a900473ffffffffffffffffffffffffffffffffffffffff1673ffffffffffffffffffffffffffffffffffffffff167ff8df31144d9c2f0f6b59d69b8b98abd5459d07f2742c4df920b25aae33c6482060405160405180910390a260008060006101000a81548173ffffffffffffffffffffffffffffffffffffffff021916908373ffffffffffffffffffffffffffffffffffffffff160217905550565b6000806064831115610e7757606492505b7f29e2bfa35d96c04107f3624366a238e88c0b823a68187f082528f9bf3e2a0dfc6002546040518082815260200191505060405180910390a1601861016d610e1042811515610ec257fe5b04811515610ecc57fe5b04811515610ed657fe5b0491508183019050610120604051908101604052808681526020018581526020018381526020018281526020013373ffffffffffffffffffffffffffffffffffffffff1681526020016002548152602001848152602001600115158152602001600015158152506003600060025481526020019081526020016000206000820151816000019080519060200190610f6e9291906114b5565b506020820151816001019080519060200190610f8b9291906114b5565b50604082015181600201556060820151816003015560808201518160040160006101000a81548173ffffffffffffffffffffffffffffffffffffffff021916908373ffffffffffffffffffffffffffffffffffffffff16021790555060a0820151816005015560c0820151816006015560e08201518160070160006101000a81548160ff0219169083151502179055506101008201518160070160016101000a81548160ff0219169083151502179055509050506001600254016002819055505050505050565b6000809054906101000a900473ffffffffffffffffffffffffffffffffffffffff1673ffffffffffffffffffffffffffffffffffffffff163373ffffffffffffffffffffffffffffffffffffffff161415156110ad57600080fd5b6000809054906101000a900473ffffffffffffffffffffffffffffffffffffffff1673ffffffffffffffffffffffffffffffffffffffff16ff5b6000809054906101000a900473ffffffffffffffffffffffffffffffffffffffff1681565b806003600082815260200190815260200160002060040160009054906101000a900473ffffffffffffffffffffffffffffffffffffffff1673ffffffffffffffffffffffffffffffffffffffff163373ffffffffffffffffffffffffffffffffffffffff1614151561117d57600080fd5b60016003600084815260200190815260200160002060070160016101000a81548160ff0219169083151502179055505050565b80600360008281526020019081526020016000206002015460036000838152602001908152602001600020600301540360036000838152602001908152602001600020600601541115151561120457600080fd5b816003600082815260200190815260200160002060040160009054906101000a900473ffffffffffffffffffffffffffffffffffffffff1673ffffffffffffffffffffffffffffffffffffffff163373ffffffffffffffffffffffffffffffffffffffff1614151561127557600080fd5b7fc44bfe7fa2eef35171f4a6f21d96c116156fa154201a76c364c29caa97a20a3c836040518082815260200191505060405180910390a160006003600085815260200190815260200160002060070160006101000a81548160ff021916908315150217905550505050565b6000809054906101000a900473ffffffffffffffffffffffffffffffffffffffff1673ffffffffffffffffffffffffffffffffffffffff163373ffffffffffffffffffffffffffffffffffffffff1614151561133b57600080fd5b611344816113bb565b50565b6000809054906101000a900473ffffffffffffffffffffffffffffffffffffffff1673ffffffffffffffffffffffffffffffffffffffff163373ffffffffffffffffffffffffffffffffffffffff161415156113a257600080fd5b8073ffffffffffffffffffffffffffffffffffffffff16ff5b600073ffffffffffffffffffffffffffffffffffffffff168173ffffffffffffffffffffffffffffffffffffffff16141515156113f757600080fd5b8073ffffffffffffffffffffffffffffffffffffffff166000809054906101000a900473ffffffffffffffffffffffffffffffffffffffff1673ffffffffffffffffffffffffffffffffffffffff167f8be0079c531659141344cd1fd0a4f28419497f9722a3daafe3b4186f6b6457e060405160405180910390a3806000806101000a81548173ffffffffffffffffffffffffffffffffffffffff021916908373ffffffffffffffffffffffffffffffffffffffff16021790555050565b828054600181600116156101000203166002900490600052602060002090601f016020900481019282601f106114f657805160ff1916838001178555611524565b82800160010185558215611524579182015b82811115611523578251825591602001919060010190611508565b5b5090506115319190611535565b5090565b61155791905b8082111561155357600081600090555060010161153b565b5090565b905600a165627a7a7230582085b687fbb259dc873032f4cba0eed025c1f4926529127a7884e6c564febd15d00029",
  "source": "pragma solidity ^0.4.23;\n\n// Destructible also imports Ownable contract from Zeppelin so can use Ownable functions as well\nimport \"openzeppelin-solidity/contracts/lifecycle/Destructible.sol\";\n\ncontract Prison is Destructible {\n\n  address owner;\n\n  uint Prisonner_Counter;\n\n  mapping (uint => prisonner) public prisonners;\n\n\n    struct prisonner {\n        string name;\n        string charge;\n        uint imprisonment_date;\n        uint date_release;\n        address prison_adr;\n        uint  pris_ID;\n        uint sentence_years;\n        bool state;\n        bool toTransf;\n       // address[] hist;\n    }\n\n\nevent Imprisoned(uint Prisonner_Counter); //thi is my add in\nevent Free(uint Prisonner_Counter);\nevent TransferredIn(uint Prisonner_Counter);//this is my received\n\n\n  modifier isPrisonnerHolder (uint Pris_ID) {\n    require(msg.sender == prisonners[Pris_ID].prison_adr);\n    /*this means run the body of the function where the modifier is used: _; */\n    _;\n  }\n\n\n  modifier imprisoned (uint _Prisonner_Counter) {\n    require(prisonners[_Prisonner_Counter].state = true);\n    _;\n  }\n//\n\n  modifier free (uint _Prisonner_Counter) {\n    require(prisonners[_Prisonner_Counter].state = false);\n    _;\n  }\n\n  \n modifier CheckSentence (uint pris_ID) {\n   \n   require(prisonners[pris_ID].sentence_years <=  prisonners[pris_ID].date_release - prisonners[pris_ID].imprisonment_date);\n   _; \n }\n\n\n  constructor() public {\n   \n   \n    owner = msg.sender;\n    Prisonner_Counter = 0;\n  }\n\n// function convertSentence(uint t_years) public view returns (uint ConvertDate) {\n//   require(t_years >=0 );\n//   //Converting to hours\n//   ConvertDate =  t_years ; //* 365 * 24; \n\n//   return ConvertDate;\n// }\n\n\n  function Book(string _name, string _charge,  uint _sentence_years) public {\n  //Need to say that this is life imprisonment on the front end\n    if (_sentence_years > 100) {\n      _sentence_years = 100;\n    }\n\n    emit Imprisoned(Prisonner_Counter);\n    uint HoursStamp = now / 3600 /365 /24;\n    uint DateRelease =  _sentence_years + HoursStamp;\n\n    prisonners[Prisonner_Counter] = prisonner({name: _name, charge: _charge, imprisonment_date: HoursStamp , sentence_years: _sentence_years, date_release: DateRelease, pris_ID: Prisonner_Counter,  state: true, prison_adr: msg.sender, toTransf: false});\n    //mapping (uint => hist[]) public history;\n\n    Prisonner_Counter = Prisonner_Counter + 1;\n  }\n\n function Release(uint pris_ID) public CheckSentence(pris_ID) isPrisonnerHolder(pris_ID) {\n\n   emit Free(pris_ID);\n   prisonners[pris_ID].state = false;\n\n\n }\n\n  function CanTransfer(uint pris_ID) public isPrisonnerHolder(pris_ID) {\n    \n    prisonners[pris_ID].toTransf = true;\n\n  }\n\n\n function transfer_in(uint pris_ID)  public  {\n   require(prisonners[pris_ID].toTransf == true);\n   require(prisonners[pris_ID].prison_adr != msg.sender);\n\n    emit TransferredIn(pris_ID);\n    prisonners[pris_ID].prison_adr = msg.sender;\n    prisonners[pris_ID].toTransf = false;\n   // prisonners[pris_ID].hist.push(msg.sender) -1;\n\n  }\n\n\n\n///////////////////////\n///Getter functions\n\n function getPrisonner(uint pris_ID) view public  returns (string name, bool in_prison, string charge, uint imprisonment_date, uint releaseD, address _pris_adr, bool transf) {\n\n    return (prisonners[pris_ID].name, prisonners[pris_ID].state, prisonners[pris_ID].charge, prisonners[pris_ID].imprisonment_date, prisonners[pris_ID].date_release, prisonners[pris_ID].prison_adr, prisonners[pris_ID].toTransf );    \n      \n  }\n\nfunction getPrisonList(address whatadr) view public returns (uint [] ID_List) {\n\n      uint i;\n      uint counter = 0;\n      uint counter2 = 0;\n\n\n    //because memory arrays have to have a declared size we do this in two steps\n      //first step is figure out the count, then declare the array, then fill with values\n      for (i = 0;i <= Prisonner_Counter; i++) {\n        // string comparison not supported work around is to compare hash\n        if (prisonners[i].prison_adr == whatadr) {\n          counter ++; //this is the array placement variable\n         //pris_listIDs.push(prisonners[i].pris_ID) -1;\n\n          //return (pris_listIDs, i);\n        }\n      }\n\n          \n\n\n      uint[] memory pris_listIDs = new uint [] (counter);\n      for (i = 0;i <= Prisonner_Counter; i++) {\n        // string comparison not supported work around is to compare hash\n        if (prisonners[i].prison_adr == whatadr) {\n          counter2 ++; //this is the array placement variable\n         //pris_listIDs.push(prisonners[i].pris_ID) -1;\n          pris_listIDs[counter2 - 1] = i;\n          //return (pris_listIDs, i);\n        }\n      }\n\n      return (pris_listIDs);\n\n\n\n}\n\n\n\n}\n",
  "sourcePath": "C:\\Users\\jaihernandez\\Documents\\Consensys\\Project_Prison\\contracts\\Prison.sol",
  "compiler": {
    "name": "solc",
    "version": "0.4.24+commit.e67f0147.Emscripten.clang"
  },
  "schemaVersion": "2.0.1",
  "updatedAt": "2018-08-27T23:50:04.413Z"
}